:1000000055C000006EC000006CC000006AC0000057
:1000100068C0000066C0000064C0000062C000004C
:1000200060C000005EC000005CC000005AC000005C
:1000300058C0000056C0000054C0000052C000006C
:1000400050C000004EC000004CC000004AC000007C
:1000500048C0000046C0000044C0000042C000008C
:1000600040C000003EC000003CC000003AC000009C
:1000700038C0000036C0000034C0000032C00000AC
:1000800030C000002EC000002CC000002AC00000BC
:1000900028C0000026C0000024C0000022C00000CC
:1000A00020C000001EC000001CC0000011241FBEA4
:1000B000CFEFDAE0DEBFCDBF23E0A4E0B1E001C0C6
:1000C0001D92A030B207E1F711E0A0E0B1E0E2EE4E
:1000D000FAE002C005900D92A430B107D9F70ED115
:1000E000FEC48ECFCF93DF938130910569F490D415
:1000F00069E170E038D3019690930701809306017F
:1001000087D46EE170E00EC0029791F481D4CEE105
:10011000D0E0BE0128D3C3969093070180930601D7
:1001200077D4BE0120D30E969093050180930401ED
:10013000DF91CF9108954F925F926F927F928F924D
:100140009F92AF92BF92CF92DF92EF92FF920F9366
:10015000CF93DF934B01EC0188E0C82ED12C92E0C5
:10016000A92EB12C412C512C20E8622E2FE3722EA7
:10017000F401E080F1804CD4B501F5D20196B2DFF4
:1001800003E024E04091040160910601CE01E6D134
:100190004D865E866F86788A198A1A8A1B8A1C8A1F
:1001A000F1E0CF1AD1086596C114D10409F7DF91A7
:1001B000CF910F91FF90EF90DF90CF90BF90AF90D5
:1001C0009F908F907F906F905F904F9008950F93C6
:1001D0001F93CF93DF938C01C0E0D0E0C8018C0F58
:1001E0009D1FECD16596C83AD105C1F7DF91CF913B
:1001F0001F910F9108958F929F92AF92BF92CF92CD
:10020000DF92EF92FF92CF93DF93EC018D849E8477
:10021000AF84B88888829982AA82BB82C988DA882A
:10022000EB88FC88CC82DD82EE82FF82888563E5E4
:1002300070E0681B7109882777FD8095982FA0D002
:100240009B01AC01C501B401FAD087FF09C020E0D1
:1002500030E040E85FE3C501B4018CD087FF04C003
:100260001D861E861F86188A89856FE270E0681BCE
:100270007109882777FD8095982F82D09B01AC016A
:10028000C701B601DCD087FF09C020E030E040E6BE
:1002900051E4C701B6016ED087FF04C0198A1A8ADB
:1002A0001B8A1C8ADF91CF91FF90EF90DF90CF9057
:1002B000BF90AF909F908F9008950F931F93CF930F
:1002C000DF93C8E0D0E08C010B5E1F4FC80193DFC5
:1002D0002197E1F7DF91CF911F910F910895E1E60A
:1002E000F0E080E8808381E080838CE084B980E462
:1002F0008AB915B81BB88FE300D1B6C0CF93DF938E
:10030000CDB7DEB7CF5AD1090FB6F894DEBF0FBE16
:10031000CDBFE5DFFE01E755FF4F80EE808380E42F
:10032000818380EA8283C455DF4FF983E883CC5A06
:10033000D04084E0C155DF4F8883CF5AD04083E05E
:10034000C255DF4F8883CE5AD0409E0122553F4F81
:10035000AE0141555F4FBE0164557F4F8E010F5F67
:100360001F4FC801E8DE80D0C801A7DFC8012FDF1A
:100370006AD0F9CF40D008F481E00895E89409C02C
:1003800097FB3EF490958095709561957F4F8F4FC8
:100390009F4F9923A9F0F92F96E9BB279395F695DE
:1003A000879577956795B795F111F8CFFAF4BB0F5C
:1003B00011F460FF1BC06F5F7F4F8F4F9F4F16C0C0
:1003C000882311F096E911C0772321F09EE8872F4A
:1003D000762F05C0662371F096E8862F70E060E006
:1003E0002AF09A95660F771F881FDAF7880F96957F
:1003F000879597F90895990F0008550FAA0BE0E823
:10040000FEEF16161706E807F907C0F012161306D6
:10041000E407F50798F0621B730B840B950B39F416
:100420000A2661F0232B242B252B21F408950A267C
:1004300009F4A140A6958FEF811D811D0895DBDF92
:1004400008F48FEF0895CF93DF9360E080E07CD0D5
:10045000C8E0D1E0699181E032D083E0C030D807B4
:10046000C9F7DF91CF910895E8E0F1E0119283E0C0
:10047000E030F807D9F70895843500F56033F0F4DB
:10048000E62FE695E695E695677094E5E99FF0011D
:10049000112490E0E80FF91FE85FFE4F81E090E043
:1004A000062E01C0880F0A94EAF7442319F09081C0
:1004B000982B03C08095908198239083089525B14F
:1004C00030E2839FC00111242F7D282B25B95F982E
:1004D00087E090E070E08F989B01082E02C0359570
:1004E00027950A94E2F720FF02C02E9A01C02E98A9
:1004F0008F9A019780F75F9A0895CF93C82F579AE4
:10050000249A259A269A879A2C985F9A2C9A61E2C7
:1005100080E0D5DF6C2F606880E0D1DF64E080E0B0
:10052000CEDF63E180E0CBDF6CE080E0C8DF60E23B
:1005300080E0C5DF6CE080E0C2DF60E480E0BFDF28
:1005400060E880E0CF91BBCFCF93C82F606480E09C
:10055000B6DF6C2F606880E0CF91B1CFCF92DF9291
:10056000EF92FF920F93CF93DF9300D0CDB7DEB71A
:100570006C0170E080E090E02A834983FFDEF601A1
:1005800060837183828393834981642F70E080E06C
:1005900090E0F4DEF60164837583868397832A8175
:1005A00020870187F486E3860F900F90DF91CF912B
:1005B0000F91FF90EF90DF90CF9008952F923F9290
:1005C0004F925F926F927F928F929F92AF92BF9263
:1005D000CF92DF92EF92FF920F931F93CF93DF930F
:1005E00000D000D0CDB7DEB79C838B83DC011A9698
:1005F0008C91811195C0A0C0B601882777FD8095A8
:10060000982FBEDEEB81FC812481358146815781A4
:10061000D2D0962E872E782E692E20E030E0A901C8
:10062000D401F3016B2F7A2F8F2F9E2FA3DE87FD2E
:1006300073C020E030E040E452E4D401F3016B2FBA
:100640007A2F8F2F9E2FFBDE87FF76C020E8A22E09
:10065000B12CE12CF12C52C0AB81BC811B96ED91E9
:10066000FC911C97E00FF11FB081B983B701882777
:1006700077FD8095982F84DEEB81FC81208131818C
:100680004281538198D01B012C0120E030E0A90168
:10069000732D952DD4DE87FD21C020E030E048EA9F
:1006A00052E4622D732D842D952D64DE87FF16C0D4
:1006B00089818A2199F0A4019301652F782D832FD8
:1006C000962DDDD0262F622D732D842D952D2A8316
:1006D000D6D0862F41E02A81622FCEDEFFEFEF1ABF
:1006E000FF0AC70187709927892B31F40F5F1F4FCD
:1006F00090E8A92EB12C02C0B594A794AB81BC811F
:1007000018962C91822F90E0E816F9060CF4A4CFED
:10071000277011F00F5F1F4FBFEFCB1ADB0A04C029
:10072000C12CD12C00E010E0EB81FC81818590E0B0
:10073000C816D9060CF460CF0F900F900F900F9051
:10074000DF91CF911F910F91FF90EF90DF90CF90AD
:10075000BF90AF909F908F907F906F905F904F90E1
:100760003F902F90089597FB072E16F4009406D023
:1007700077FD08D00BD007FC05D03EF4909581950D
:100780009F4F0895709561957F4F0895AA1BBB1BDD
:1007900051E107C0AA1FBB1FA617B70710F0A61B81
:1007A000B70B881F991F5A95A9F780959095BC01A2
:1007B000CD0108955058BB27AA270ED0A3C094D0CE
:1007C00030F099D020F031F49F3F11F41EF489C02D
:1007D0000EF4E095E7FB7FC0E92FA5D080F3BA17B0
:1007E000620773078407950718F071F49EF5BDC082
:1007F0000EF4E0950B2EBA2FA02D0B01B90190013C
:100800000C01CA01A0011124FF27591B99F0593F7F
:1008100050F4503E68F11A16F040A22F232F342FC7
:100820004427585FF3CF469537952795A795F04015
:100830005395C9F77EF41F16BA0B620B730B840B2A
:10084000BAF09150A1F0FF0FBB1F661F771F881FE2
:10085000C2F70EC0BA0F621F731F841F48F487953A
:1008600077956795B795F7959E3F08F0B3CF939529
:10087000880F08F09927EE0F9795879508955BD01C
:1008800088F09F5790F0B92F9927B751A0F0D1F079
:10089000660F771F881F991F1AF0BA95C9F712C003
:1008A000B13081F062D0B1E008955FC0672F782F3A
:1008B0008827B85F39F0B93FCCF38695779567956F
:1008C000B395D9F73EF490958095709561957F4FDB
:1008D0008F4F9F4F089597F99F6780E870E060E021
:1008E00008959FEF80EC089500240A9416161706C9
:1008F00018060906089500240A9412161306140611
:1009000005060895092E0394000C11F4882352F073
:10091000BB0F40F4BF2B11F460FF04C06F5F7F4F2B
:100920008F4F9F4F089557FD9058440F551F59F012
:100930005F3F71F04795880F97FB991F61F09F3FCC
:1009400079F087950895121613061406551FF2CFF5
:100950004695F1DF08C0161617061806991FF1CF45
:1009600086957105610508940895E894BB2766276C
:100970007727CB0197F908958F929F92AF92BF92FC
:10098000CF92DF92EF92FF92CF93DF93EC016881D9
:1009900079818A819B81611571058105910521F419
:1009A00064E279ED8BE597E02DE133EF41E050E033
:1009B0003DD049015A019B01AC01A7EAB1E451D0F5
:1009C0006B017C01ACEEB4EFA501940156D0C60ECC
:1009D000D71EE81EF91EF7FE06C081E0C81AD1082E
:1009E000E10880E8F80AC882D982EA82FB82E894AA
:1009F000D7F8EE24FF24C601DF91CF91FF90EF904E
:100A0000DF90CF90BF90AF909F908F900895B4CF1C
:100A100080E091E0B1CFA0E0B0E08093000190933E
:100A20000101A0930201B09303010895052E97FBE5
:100A300016F4009406D057FD0CD023D007FC09D043
:100A40007EF490958095709561957F4F8F4F9F4F65
:100A5000089550954095309521953F4F4F4F5F4FEA
:100A6000089531D0A59F900DB49F900DA49F800D47
:100A7000911D11240895B7FFF4CFF3DF821B930B70
:100A80000895A1E21A2EAA1BBB1BFD010DC0AA1FCF
:100A9000BB1FEE1FFF1FA217B307E407F50720F0E7
:100AA000A21BB30BE40BF50B661F771F881F991F62
:100AB0001A9469F760957095809590959B01AC01AB
:100AC000BD01CF010895A29FB001B39FC001A39FB4
:100AD00001D0B29F700D811D1124911D0895F894CD
:020AE000FFCF46
:040AE200010000000F
:00000001FF
