:1000000045C100005FC100005DC100005BC1000090
:1000100059C1000057C1000055C1000053C1000084
:1000200051C100004FC100004DC100004BC1000094
:1000300049C1000047C1000045C1000043C10000A4
:1000400041C100003FC100003DC100003BC10000B4
:1000500039C1000037C1000035C1000033C10000C4
:1000600031C100002FC100002DC100002BC10000D4
:1000700029C1000027C1000025C1000023C10000E4
:1000800021C100001FC100001DC100001BC10000F4
:1000900019C1000017C1000015C1000013C1000004
:1000A00011C100000FC100000DC1000000000000E0
:1000B0000000005F00000007000700147F147F1499
:1000C000242A7F2A122313086462364955225000DD
:1000D00005030000001C2241000041221C001408FE
:1000E0003E081408083E08080050300000080808C0
:1000F0000808006060000020100804023E514945D5
:100100003E00427F400042615149462141454B310A
:100110001814127F1027454545393C4A494930019A
:10012000710905033649494936064949291E0036F1
:100130003600000056360000081422410014141442
:100140001414004122140802015109063249794170
:100150003E7E1111117E7F494949363E414141227F
:100160007F4141221C7F494949417F090909013EDC
:100170004149497A7F0808087F00417F41002040BB
:10018000413F017F081422417F404040407F020CE4
:10019000027F7F0408107F3E4141413E7F090909EB
:1001A000063E4151215E7F09192946464949493198
:1001B00001017F01013F4040403F1F2040201F3F81
:1001C0004038403F63140814630708700807615102
:1001D000494543007F41410002040810200041418D
:1001E0007F0004020102044040404040000102043C
:1001F0000020545454787F484444383844444420C0
:10020000384444487F3854545418087E0901020C7D
:100210005252523E7F0804047800447D4000204042
:10022000443D007F1028440000417F40007C0418BA
:1002300004787C0804047838444444387C1414144A
:1002400008081414187C7C080404084854545420EA
:10025000043F4440203C4040207C1C2040201C3C6B
:100260004030403C44281028440C5050503C4464DA
:10027000544C44000836410000007F000000413625
:1002800008001008081008784641467811241FBE5F
:10029000CFEFDAE0DEBFCDBF11E0A0E0B1E0E2E2F7
:1002A000FFE102C005900D92AA35B107D9F724E00D
:1002B000AAE5B1E001C01D92A533B207E1F713D062
:1002C0000C948F0F9DCEE1E6F0E080E8808381E022
:1002D00080838CE084B980E48AB915B81BB88FE3B9
:1002E0000E94C509A3C50F931F93CF93DF93EBDF44
:1002F00088D0ABD0FBD01ED14BD128D497D500E00D
:1003000010E0C0E0D0E023C091D59FD0EFD012D153
:1003100086D3CA30D10539F480910C0190910D013A
:1003200039D4C0E0D0E00233110519F427D100E040
:1003300010E046D46AD521960F5F1F4F2FEF80E75C
:1003400092E0215080409040E1F700C00000809191
:1003500000019091010118161906B4F267D543E027
:1003600062E082E191E0DFD750D580E090E0DF915C
:10037000CF911F910F91089559D546E150E068E261
:1003800070E08CE191E0CFD72A9A2B9A5E9A3DD506
:100390002FEF89E698E1215080409040E1F700C0BE
:1003A00000002A982B985E9841D546E150E068E21B
:1003B00070E08EE191E0B7D72A9A2B9A26D52FEFDD
:1003C00089E698E1215080409040E1F700C00000AC
:1003D0002A982B982BD546E150E068E270E080E245
:1003E00091E0A1D72B9A11D52FEF89E698E1215002
:1003F00080409040E1F700C000002A982B9816D565
:1004000015C514D540E050E06FE070E082E291E065
:100410008AD749E050E067E070E08DE291E083D751
:100420004BE150E063E170E08CE391E07CD744E283
:1004300050E06FE070E085E491E075D7E6D4199B59
:10044000FECF1999FECF98DFE0C42FE230E040E004
:1004500050E060E070E080E090E013D52FE230E003
:1004600043E550E060E070E083E590E00AD520E0ED
:1004700030E044E550E060E070E080E090E001D5DD
:100480002FE230E043E550E06FE270E080E090E082
:10049000F8D42CE030E043E550E06CE070E080E020
:1004A00090E0EFD422E130E043E350E062E170E01D
:1004B0008CE190E0E6D429E230E043E350E069E2E9
:1004C00070E08CE190E0DDD429E230E04CE150E0D6
:1004D00062E170E08CE190E0D4D429E230E043E3C3
:1004E00050E062E170E083E390E0CBC443E050E091
:1004F00062E070E080E591E016D7809101018F9372
:10050000809100018F9383E591E09F938F938BE11E
:1005100092E09F938F930E94730C0F900F900F9017
:100520000F900F900F9043E050E06BE070E08BE194
:1005300092E0F9C643E050E062E170E086E591E0C8
:10054000F2D680915B018F9380915A018F9383E55E
:1005500091E09F938F938AE292E09F938F930E9402
:10056000730C0F900F900F900F900F900F9043E02F
:1005700050E06BE170E08AE292E0D5C680915A01CA
:1005800090915B01019690935B0180935A010895CD
:10059000EF92FF920F9382E0E82E81E0F82E03E0C5
:1005A00023E04CE166E28EE591E020D781E0809384
:1005B0006801E0910501F0910601828780E090E0FA
:1005C000A0E8BFE380936B0190936C01A0936D0151
:1005D000B0936E0110926F01109270011092710130
:1005E000109272018EE591E00F91FF90EF902EC76F
:1005F0008F929F92AF92BF92CF92DF92EF92FF9233
:100600000F931F93CF93DF93EC0120E030E040E89D
:100610005FE36D857E858F8598893DD3811121C0EB
:10062000199B1FC02FEF80E792E02150804090403F
:10063000E1F700C000001D861E861F86188A80E034
:1006400090E0A0E8BFE3898B9A8BAB8BBC8B1092B8
:1006500008011092070181E090E090935D01809382
:100660005C0120E030E040E85FEB6D857E858F85A2
:10067000988911D3811121C0199B1FC02FEF80E7EA
:1006800092E0215080409040E1F700C000001D86BC
:100690001E861F86188A80E090E0A0E8BFEB898B59
:1006A0009A8BAB8BBC8B10920801109207018FEFD5
:1006B0009FEF90935D0180935C0120E030E040E883
:1006C0005FE369897A898B899C89E5D2811121C090
:1006D000199B1FC02FEF80E792E02150804090408F
:1006E000E1F700C0000080E090E0A0E8BFEB8D875C
:1006F0009E87AF87B88B198A1A8A1B8A1C8A8FEF4C
:100700009FEF909308018093070110925D01109272
:100710005C0120E030E040E85FEB69897A898B89F1
:100720009C89B9D2811121C0199B1FC02FEF80E78E
:1007300092E0215080409040E1F700C0000080E04E
:1007400090E0A0E8BFE38D879E87AF87B88B198ABA
:100750001A8A1B8A1C8A81E090E09093080180939A
:10076000070110925D0110925C0120E030E040E84A
:100770005FE36D857E858F8598898DD2811121C03B
:10078000189B1FC02FEF80E792E0215080409040DF
:10079000E1F700C000001D861E861F86188A80E0D3
:1007A00090E0A0E8BFEB898B9A8BAB8BBC8B10924F
:1007B0000801109207018FEF9FEF90935D018093E6
:1007C0005C0120E030E040E85FEB6D857E858F8541
:1007D000988961D2811121C0189B1FC02FEF80E73B
:1007E00092E0215080409040E1F700C000001D865B
:1007F0001E861F86188A80E090E0A0E8BFE3898B00
:100800009A8BAB8BBC8B109208011092070181E090
:1008100090E090935D0180935C0120E030E040E83F
:100820005FE369897A898B899C8935D2811121C0DE
:10083000189B1FC02FEF80E792E02150804090402E
:10084000E1F700C0000080E090E0A0E8BFE38D8702
:100850009E87AF87B88B198A1A8A1B8A1C8A81E007
:1008600090E0909308018093070110925D0110922F
:100870005C0120E030E040E85FEB69897A898B8990
:100880009C8909D2811121C0189B1FC02FEF80E7DE
:1008900092E0215080409040E1F700C0000080E0ED
:1008A00090E0A0E8BFEB8D879E87AF87B88B198A51
:1008B0001A8A1B8A1C8A8FEF9FEF909308018093FE
:1008C000070110925D0110925C012D853E854F85D8
:1008D0005889688179818A819B8179D14B015C013A
:1008E000862F992DAA2DBB2D88839983AA83BB833C
:1008F00029893A894B895C896C817D818E819F81B0
:1009000066D16B017C01862F9D2DAE2DBF2D8C8372
:100910009D83AE83BF83088510E064E570E0601BB3
:10092000710B882777FD8095982FBBD19B01AC0177
:10093000682D792D8A2D9B2D64D287FD0DC020E076
:1009400030E040E85FE3682D792D8A2D9B2D3ED164
:10095000688379838A839B8388809980AA80BB80FF
:10096000B80162507109882777FD8095982F99D139
:100970009B01AC01C501B4018ED187FF0BC020E003
:1009800030E040E85FE3C501B40121D16883798399
:100990008A839B83898560E370E0681B71098827DF
:1009A00077FD8095982F7DD19B01AC016C2D7D2D1D
:1009B0008E2D9F2D26D287FD0DC020E030E040E82F
:1009C0005FE36C2D7D2D8E2D9F2D00D16C837D835B
:1009D0008E839F83CC80DD80EE80FF8020E030E03E
:1009E00040E551E4C701B60156D187FF0BC020E0B6
:1009F00030E040E85FE3C701B601E9D06C837D8356
:100A00008E839F83DF91CF911F910F91FF90EF9085
:100A1000DF90CF90BF90AF909F908F90089580917E
:100A2000050190910601E4DD809105019091060198
:100A30000DC5CF93DF938130910569F446D769E105
:100A400070E0D9D5019690933C0280933B023DD74C
:100A50006EE170E00EC0029791F437D7CEE1D0E09E
:100A6000BE01C9D5C39690933C0280933B022DD71B
:100A7000BE01C1D50E9690933A0280933902DF9160
:100A8000CF9108954F925F926F927F928F929F9233
:100A9000AF92BF92CF92DF92EF92FF920F931F938C
:100AA000CF93DF934B01EC0188E0C82ED12C92E06C
:100AB000A92EB12C11E0412C512C20E8622E2FE3FD
:100AC000722EF401E080F18000D7B50194D5019633
:100AD000B0DF03E024E04091390260913B02CE0197
:100AE00085D41A874D865E866F86788A198A1A8A17
:100AF0001B8A1C8AF1E0CF1AD1086596C114D10473
:100B000001F7DF91CF911F910F91FF90EF90DF9050
:100B1000CF90BF90AF909F908F907F906F905F909D
:100B20004F9008950F931F93CF93DF938C01C0E0F4
:100B3000D0E0C8018C0F9D1F89D46596C83AD105B5
:100B4000C1F7DF91CF911F910F910895CF93DF935C
:100B500000D000D0CDB7DEB789E091E09A838983D9
:100B600084E08C8383E08B839E012D5F3F4FAE0139
:100B70004C5F5F4FBE016F5F7F4F83E791E082DF85
:100B800083E791E0CFDF0F900F900F900F90DF91F0
:100B9000CF9108950F931F93FC0146A157A160A523
:100BA00071A502A113A124A135A1058B168B278B5A
:100BB000308F418F528F638F748F1F910F910895E3
:100BC00083E791E0E7DF83E791E0ACCF5058BB27A4
:100BD000AA270ED0DCC0CDD030F0D2D020F031F436
:100BE0009F3F11F41EF4C2C00EF4E095E7FBB8C0BD
:100BF000E92FDED080F3BA176207730784079507E1
:100C000018F071F49EF5F6C00EF4E0950B2EBA2F95
:100C1000A02D0B01B90190010C01CA01A001112402
:100C2000FF27591B99F0593F50F4503E68F11A16AE
:100C3000F040A22F232F342F4427585FF3CF46953F
:100C400037952795A795F0405395C9F77EF41F1661
:100C5000BA0B620B730B840BBAF09150A1F0FF0F2B
:100C6000BB1F661F771F881FC2F70EC0BA0F621F17
:100C7000731F841F48F4879577956795B795F79507
:100C80009E3F08F0B3CF9395880F08F09927EE0F99
:100C900097958795089540D008F481E00895E894E9
:100CA00009C097FB3EF490958095709561957F4FB4
:100CB0008F4F9F4F9923A9F0F92F96E9BB27939562
:100CC000F695879577956795B795F111F8CFFAF472
:100CD000BB0F11F460FF1BC06F5F7F4F8F4F9F4FA3
:100CE00016C0882311F096E911C0772321F09EE801
:100CF000872F762F05C0662371F096E8862F70E067
:100D000060E02AF09A95660F771F881FDAF7880F40
:100D10009695879597F90895990F0008550FAA0B96
:100D2000E0E8FEEF16161706E807F907C0F01216FE
:100D30001306E407F50798F0621B730B840B950B01
:100D400039F40A2661F0232B242B252B21F4089556
:100D50000A2609F4A140A6958FEF811D811D0895F3
:100D600097F99F6780E870E060E008959FEF80EC5E
:100D7000089500240A941616170618060906089501
:100D800000240A9412161306140605060895092E67
:100D90000394000C11F4882352F0BB0F40F4BF2BD6
:100DA00011F460FF04C06F5F7F4F8F4F9F4F089516
:100DB00057FD9058440F551F59F05F3F71F047950C
:100DC000880F97FB991F61F09F3F79F087950895F1
:100DD000121613061406551FF2CF4695F1DF08C010
:100DE000161617061806991FF1CF8695710561052D
:100DF00008940895E894BB2766277727CB0197F9D5
:100E000008958ADF08F48FEF0895CF93DF9360E0B1
:100E100080E0E2D2CDE3D2E0699181E098D284E033
:100E2000C533D807C9F7DF91CF910895EDE3F2E01C
:100E3000119284E0E533F807D9F70895843500F579
:100E40006033F0F4E62FE695E695E695677094E555
:100E5000E99FF001112490E0E80FF91FE35CFD4FDA
:100E600081E090E0062E01C0880F0A94EAF744233F
:100E700019F09081982B03C08095908198239083DE
:100E800008952F923F924F925F926F927F928F922E
:100E90009F92AF92BF92CF92DF92EF92FF920F9309
:100EA0001F93CF93DF93CDB7DEB762970FB6F89459
:100EB000DEBF0FBECDBFA82E962E842EB22E841379
:100EC00009C005C041E0692D8A2DB8DF9394B9149B
:100ED000C8F7BCC1621309C005C041E0692D8A2D65
:100EE000ADDFA3948A14C8F7B1C1622F70E080E02F
:100EF00090E0D5DE6B017C01692D70E080E090E030
:100F0000D0DE9B01AC01C701B60160DE1B012C01E4
:100F1000682D70E080E090E0C2DE6B017C016A2DFC
:100F200070E080E090E0BDDE9B01AC01C701B6013E
:100F30004DDE3B018C01762F272F372D402F512F6F
:100F4000622D732D842D952D7DD36B017C0120E0C6
:100F500030E040E85FE37D2D9F2DA81490F551DF30
:100F600018160CF44AC120E030E040E85FE36C2D35
:100F70007D2D8E2D9F2D8FDE18165CF020E030E049
:100F8000A9016C2D7D2D8E2D9F2D3BDF18160CF4A5
:100F900016C120E030E0A9016C2D7D2D8E2D9F2DF6
:100FA0007ADE18160CF42CC120E030E040E85FEB4C
:100FB0006C2D7D2D8E2D9F2D24DF18160CF402C173
:100FC0001FC11FDF18160CF420C120E030E040E8FC
:100FD0005FE36C2D7D2D8E2D9F2D5DDE18165CF050
:100FE00020E030E0A9016C2D7D2D8E2D9F2D09DF95
:100FF00018160CF4ECC020E030E0A9016C2D7D2D1A
:101000008E2D9F2D48DE18160CF404C120E030E030
:1010100040E85FEB6C2D7D2D8E2D9F2DF2DE181696
:101020000CF4DAC0A2E0B0E0F2C08D819E8103979B
:10103000049720F0AA24A394B12C03C0AA24AA9454
:10104000BA2C2601370177FA709477F8709420E073
:1010500030E0A901C701B601D4DE87FD05C0CF820B
:10106000D886E986FA8604C04F82588669867A86D1
:10107000E981FA81FA8BE98B912C812C712C612CFE
:10108000C501AA2797FDA095BA2F8D879E87AF87A8
:10109000B88B82C0AB81BC8141E0AB2B19F0602FD3
:1010A000898902C06989802FC9DE7F816885998519
:1010B0008A85272F362F492F582FD401F3016B2F04
:1010C000782D8F2F962D83DD6B877C872C01962EB4
:1010D000872E782E652C20E030E040E05FE3D401DD
:1010E000F3016B2F7A2F8F2F9E2F8BDE18160CF0AB
:1010F00043C06D857E858F859889D3DD9B01AC01CA
:10110000C701B60133D33B014C01E1E0F0E0FE83BF
:10111000ED8320E030E0A901772D992D72DE1816BD
:1011200014F01E821D82AA24A394B12C20E030E08A
:10113000A901662D772D882D992DADDD87FD02C083
:10114000A12CB12C8D819E818A199B09019719F4DC
:101150000F5F1F4F02C00150110920E030E040E84E
:101160005FE3BB85AC856B2F7A2F842D952D2EDD0B
:10117000962E872E782E692E89819A818215930565
:1011800030F4A989BA891196BA8BA98B05C0E9896F
:10119000FA893197FA8BE98B89819A8182159305B7
:1011A00038F4A989BA892A163B0608F073CF4EC0D5
:1011B000E989FA89E215F30508F06CCF47C01E8271
:1011C0001D820EC087E090E09E838D8309C0A4E05D
:1011D000B0E0BE83AD8304C0E3E0F0E0FE83ED83C6
:1011E000092D10E08A2D90E09A838983282C312CD8
:1011F000A1E0B0E0BC83AB8318CFE1E0F0E00CC02D
:1012000086E090E09E838D8309C0A5E0B0E0BE83B8
:10121000AD8304C0E2E0F0E0FE83ED83222D332DA8
:10122000442D552D662D772D802F912F0BD2C62E54
:10123000D72EE82EF92E0A2D10E0892D90E09A8302
:1012400089832B2C312C1C821B82EFCE62960FB629
:10125000F894DEBF0FBECDBFDF91CF911F910F91EC
:10126000FF90EF90DF90CF90BF90AF909F908F90C6
:101270007F906F905F904F903F902F9008957F9256
:101280008F929F92AF92BF92CF92DF92EF92FF9296
:101290000F931F93CF93DF93862E742E00E010E000
:1012A00090E0809725E0289F6001299FD00C1124B1
:1012B000AA24A394B12C1CC0A5010C2E02C0440F7B
:1012C000551F0A94E2F74E215F210C2E02C055955E
:1012D00047950A94E2F76C2F670D892DAFDD2196B3
:1012E000C830D10549F70F5F1F4F0530110569F070
:1012F000C0E0D0E0F801EC0DFD1DE455FF4FE49196
:10130000EE2EF12C982C900ED7CFDF91CF911F911C
:101310000F91FF90EF90DF90CF90BF90AF909F9094
:101320008F907F9008950F931F93CF93DF93162F85
:10133000042FEC0104C0402F612FA1DF1B5F8991B6
:101340008111F9CFDF91CF911F910F91089525B1B0
:1013500030E2839FC00111242F7D282B25B95F988F
:1013600087E090E070E08F989B01082E02C03595D1
:1013700027950A94E2F720FF02C02E9A01C02E980A
:101380008F9A019780F75F9A0895CF93C82F579A45
:10139000249A259A269A879A2C985F9A2C9A61E229
:1013A00080E0D5DF6C2F606880E0D1DF64E080E012
:1013B000CEDF63E180E0CBDF6CE080E0C8DF60E29D
:1013C00080E0C5DF6CE080E0C2DF60E480E0BFDF8A
:1013D00060E880E0CF91BBCFCF93C82F606480E0FE
:1013E000B6DF6C2F606880E0CF91B1CFCF92DF92F3
:1013F000EF92FF920F93CF93DF9300D0CDB7DEB77C
:101400006C0170E080E090E02A83498348DCF601BB
:1014100060837183828393834981642F70E080E0CD
:1014200090E03DDCF60164837583868397832A818F
:1014300020870187F486E3860F900F90DF91CF918C
:101440000F91FF90EF90DF90CF9008952F923F92F1
:101450004F925F926F927F928F929F92AF92BF92C4
:10146000CF92DF92EF92FF920F931F93CF93DF9370
:1014700000D000D0CDB7DEB79C838B83DC011A96F9
:101480008C91811195C0A0C0B601882777FD809509
:10149000982F07DCEB81FC812481358146815781BF
:1014A00096DB962E872E782E692E20E030E0A9015B
:1014B000D401F3016B2F7A2F8F2F9E2FECDB87FD4A
:1014C00073C020E030E040E452E4D401F3016B2F1C
:1014D0007A2F8F2F9E2F95DC87FF76C020E8A22ED3
:1014E000B12CE12CF12C52C0AB81BC811B96ED914B
:1014F000FC911C97E00FF11FB081B983B7018827D9
:1015000077FD8095982FCDDBEB81FC8120813181A7
:10151000428153815CDB1B012C0120E030E0A901FA
:10152000732D952D6EDC87FD21C020E030E048EA68
:1015300052E4622D732D842D952DADDB87FF16C0EF
:1015400089818A2199F0A4019301652F782D832F39
:10155000962DE0D0262F622D732D842D952D2A8374
:10156000D9D0862F41E02A81622F68DCFFEFEF1A85
:10157000FF0AC70187709927892B31F40F5F1F4F2E
:1015800090E8A92EB12C02C0B594A794AB81BC8180
:1015900018962C91822F90E0E816F9060CF4A4CF4F
:1015A000277011F00F5F1F4FBFEFCB1ADB0A04C08B
:1015B000C12CD12C00E010E0EB81FC81818590E012
:1015C000C816D9060CF460CF0F900F900F900F90B3
:1015D000DF91CF911F910F91FF90EF90DF90CF900F
:1015E000BF90AF909F908F907F906F905F904F9043
:1015F0003F902F90089597FB072E16F4009406D085
:1016000077FD08D00BD007FC05D03EF4909581956E
:101610009F4F0895709561957F4F0895AA1BBB1B3E
:1016200051E107C0AA1FBB1FA617B70710F0A61BE2
:10163000B70B881F991F5A95A9F780959095BC0103
:10164000CD0108950CD0A3CB9BDB40F092DB30F0B2
:1016500021F45F3F19F084CB5111CDCB87CBA8DBB0
:1016600098F39923C9F35523B1F3951B550BBB2769
:10167000AA2762177307840738F09F5F5F4F220F16
:10168000331F441FAA1FA9F333D00E2E3AF0E0E80F
:1016900030D091505040E695001CCAF729D0FE2F5B
:1016A00027D0660F771F881FBB1F261737074807ED
:1016B000AB07B0E809F0BB0B802DBF01FF279358A3
:1016C0005F4F2AF09E3F510568F04ACB94CB5F3FB5
:1016D000ECF3983EDCF3869577956795B795F7958B
:1016E0009F5FC9F7880F911D9695879597F9089583
:1016F000E1E0660F771F881FBB1F6217730784071F
:10170000BA0720F0621B730B840BBA0BEE1F88F72D
:10171000E095089555DB88F09F5790F0B92F9927F1
:10172000B751A0F0D1F0660F771F881F991F1AF0EC
:10173000BA95C9F712C0B13081F05CDBB1E0089511
:1017400059CB672F782F8827B85F39F0B93FCCF392
:10175000869577956795B395D9F73EF490958095E2
:10176000709561957F4F8F4F9F4F08950BD00FCB92
:1017700000DB28F005DB18F0952309F0F1CAF6CA62
:10178000112439CB15DBA0F3959FD1F3950F50E0D1
:10179000551F629FF001729FBB27F00DB11D639F23
:1017A000AA27F00DB11DAA1F649F6627B00DA11DC9
:1017B000661F829F2227B00DA11D621F739FB00D6F
:1017C000A11D621F839FA00D611D221F749F3327DF
:1017D000A00D611D231F849F600D211D822F762F78
:1017E0006A2F11249F5750408AF0E1F088234AF075
:1017F000EE0FFF1FBB1F661F771F881F91505040C1
:10180000A9F79E3F510570F0ABCAF5CA5F3FECF3F4
:10181000983EDCF3869577956795B795F795E795AC
:101820009F5FC1F7FE2B880F911D9695879597F9BD
:1018300008958F929F92AF92BF92CF92DF92EF92D4
:10184000FF92CF93DF93EC01688179818A819B813C
:10185000611571058105910521F464E279ED8BE54F
:1018600097E02DE133EF41E050E0C9D249015A0140
:101870009B01AC01A7EAB1E4DDD26B017C01ACEEC7
:10188000B4EFA5019401E2D2C60ED71EE81EF91EE0
:10189000F7FE06C081E0C81AD108E10880E8F80A1E
:1018A000C882D982EA82FB82E894D7F8EE24FF242A
:1018B000C601DF91CF91FF90EF90DF90CF90BF9066
:1018C000AF909F908F900895B4CF8EE091E0B1CF0C
:1018D000A0E0B0E080930E0190930F01A09310015F
:1018E000B09311010895AEE0B0E0E8E7FCE0C0C2BB
:1018F0000D891E8986E08C831A8309838FEF9FE709
:101900009E838D83CE014996AC016F89788DCE017F
:10191000019608D0EF81F885E00FF11F10822E9616
:10192000E4E0C2C2ACE0B0E0E7E9FCE093C27C01D5
:101930006B018A01FC0117821682838181FFB9C184
:1019400088248394912C8C0E9D1EF7019381F601BF
:1019500093FD859193FF81916F01882309F4A5C1BF
:10196000853239F493FD859193FF81916F01853222
:1019700021F4B70190E0B9D1E8CF512C312C20E00F
:101980002032A8F48B3261F028F4803251F0833297
:1019900071F40BC08D3239F0803349F4216028C0D6
:1019A0002260246025C0286023C0206121C027FD5B
:1019B00027C0382F30533A3078F426FF06C0FAE0BB
:1019C0005F9E300D1124532E13C08AE0389E300DD7
:1019D0001124332E20620CC08E3221F426FD65C105
:1019E000206406C08C3611F4206802C0883641F4A9
:1019F000F60193FD859193FF81916F018111C0CF15
:101A0000982F9554933018F09052933028F40C5F2F
:101A10001F4FFFE3F9830DC0833631F0833771F038
:101A2000833509F05AC022C0F801808189830E5F96
:101A30001F4F44244394512C540114C03801F2E048
:101A40006F0E711CF801A080B18026FF03C0652DC8
:101A500070E002C06FEF7FEFC5012C873BD12C01F6
:101A600083012C856FE7262E222217C03801F2E071
:101A70006F0E711CF801A080B18026FF03C0652D98
:101A800070E002C06FEF7FEFC5012C8718D12C01E9
:101A90002C8550E8252E222A830123FC1AC005C07C
:101AA000B70180E290E021D13A94832D90E048166E
:101AB0005906B0F30EC0F50127FC859127FE8191F0
:101AC0005F01B70190E011D131103A94F1E04F1A63
:101AD00051084114510479F7E5C0843611F0893674
:101AE00039F5F80127FF07C06081718182819381F8
:101AF0000C5F1F4F08C060817181882777FD80953A
:101B0000982F0E5F1F4F4FE6B42EB22297FF09C0E9
:101B100090958095709561957F4F8F4F9F4FF0E81E
:101B2000BF2A2AE030E0A4010CD1A82EA81842C098
:101B3000853731F43FEEB32EB2222AE030E024C0E4
:101B400099EFB92EB2228F36B9F020F4883509F01A
:101B5000ACC00DC0803721F0883709F0A6C002C0A4
:101B600020E1B22AB4FE0BC084E0B82A08C024FFEA
:101B700009C0E6E0BE2A06C028E030E005C020E14A
:101B800030E002C020E132E0F801B7FE07C060811A
:101B90007181828193810C5F1F4F06C060817181CA
:101BA00080E090E00E5F1F4FA401CBD0A82EA818B4
:101BB000FFE7BF22B6FE0BC02B2D2E7FA51450F4DD
:101BC000B4FE0AC0B2FC08C02B2D2E7E05C07A2CB4
:101BD0002B2D03C07A2C01C0752C24FF0DC0FE01F3
:101BE000EA0DF11D8081803311F4297E09C022FFA6
:101BF00006C07394739404C0822F867809F073949E
:101C000023FD13C020FF0EC05A2C731458F4530C3C
:101C10005718732C07C0B70180E290E02C8765D07D
:101C200073942C857314B8F304C0731410F437182C
:101C300001C0312C24FF11C0B70180E390E02C8754
:101C400054D02C8522FF1CC021FF03C088E590E002
:101C500002C088E790E0B7010CC0822F867881F03F
:101C600021FD02C080E201C08BE227FD8DE2B701B9
:101C700090E03BD005C0B70180E390E036D05A94A5
:101C8000A514C8F3AA94F401EA0DF11DB7018081EF
:101C900090E02BD0A110F6CF05C0B70180E290E014
:101CA00024D03A943110F9CF50CEF70126813781F4
:101CB00002C02FEF3FEFC9012C96E2E1E7C0FC0123
:101CC0000590615070400110D8F7809590958E0F67
:101CD0009F1F0895FC016150704001900110D8F7DA
:101CE000809590958E0F9F1F08950F931F93CF930C
:101CF000DF938C01EB018B8181FD03C00FEF1FEFA0
:101D00001AC082FF0DC02E813F818C819D812817D2
:101D1000390764F4E881F9810193F983E88306C007
:101D2000E885F985802F0995892B41F78E819F8160
:101D300001969F838E83C801DF91CF911F910F91F0
:101D40000895FA01AA27283051F1203181F1E89451
:101D50006F936E7F6E5F7F4F8F4F9F4FAF4FB1E09E
:101D60003ED0B4E03CD0670F781F891F9A1FA11D99
:101D7000680F791F8A1F911DA11D6A0F711D811D9A
:101D8000911DA11D20D009F468943F912AE0269F5F
:101D900011243019305D3193DEF6CF010895462FBE
:101DA0004770405D4193B3E00FD0C9F7F6CF462F9F
:101DB0004F70405D4A3318F0495D31FD4052419308
:101DC00002D0A9F7EACFB4E0A695979587957795C5
:101DD0006795BA95C9F700976105710508959B014C
:101DE000AC010A2E06945795479537952795BA95D5
:101DF000C9F7620F731F841F951FA01D0895052E3C
:101E000097FB16F4009406D057FD0CD05AD007FC6F
:101E100009D07EF490958095709561957F4F8F4F96
:101E20009F4F089550954095309521953F4F4F4FC6
:101E30005F4F089568D0A59F900DB49F900DA49F0B
:101E4000800D911D11240895B7FFF4CFF3DF821B9D
:101E5000930B08952F923F924F925F926F927F92D1
:101E60008F929F92AF92BF92CF92DF92EF92FF92AA
:101E70000F931F93CF93DF93CDB7DEB7CA1BDB0B56
:101E80000FB6F894DEBF0FBECDBF09942A883988FB
:101E900048885F846E847D848C849B84AA84B98402
:101EA000C884DF80EE80FD800C811B81AA81B9810E
:101EB000CE0FD11D0FB6F894DEBF0FBECDBFED0122
:101EC0000895A1E21A2EAA1BBB1BFD010DC0AA1F7B
:101ED000BB1FEE1FFF1FA217B307E407F50720F093
:101EE000A21BB30BE40BF50B661F771F881F991F0E
:101EF0001A9469F760957095809590959B01AC0157
:101F0000BD01CF010895A29FB001B39FC001A39F5F
:101F100001D0B29F700D811D1124911D0895F89478
:021F2000FFCFF1
:101F22000300E040E05E010100E040A07301010017
:101F3200000047414D45204F5645520033003200C4
:101F420031005A6F6D62696544617368005465655A
:101F52006E73792045646974696F6E006E39333728
:101F620038383830004A61692053706963657200FD
:0A1F72004C3A00256400533A0000C9
:00000001FF
