:1000000045C100005FC100005DC100005BC1000090
:1000100059C1000057C1000055C1000053C1000084
:1000200051C100004FC100004DC100004BC1000094
:1000300049C1000047C1000045C1000043C10000A4
:1000400041C100003FC100003DC100003BC10000B4
:1000500039C1000037C1000035C1000033C10000C4
:1000600031C100002FC100002DC100002BC10000D4
:1000700029C1000027C1000025C1000023C10000E4
:1000800021C100001FC100001DC100001BC10000F4
:1000900019C1000017C1000015C1000013C1000004
:1000A00011C100000FC100000DC1000000000000E0
:1000B0000000005F00000007000700147F147F1499
:1000C000242A7F2A122313086462364955225000DD
:1000D00005030000001C2241000041221C001408FE
:1000E0003E081408083E08080050300000080808C0
:1000F0000808006060000020100804023E514945D5
:100100003E00427F400042615149462141454B310A
:100110001814127F1027454545393C4A494930019A
:10012000710905033649494936064949291E0036F1
:100130003600000056360000081422410014141442
:100140001414004122140802015109063249794170
:100150003E7E1111117E7F494949363E414141227F
:100160007F4141221C7F494949417F090909013EDC
:100170004149497A7F0808087F00417F41002040BB
:10018000413F017F081422417F404040407F020CE4
:10019000027F7F0408107F3E4141413E7F090909EB
:1001A000063E4151215E7F09192946464949493198
:1001B00001017F01013F4040403F1F2040201F3F81
:1001C0004038403F63140814630708700807615102
:1001D000494543007F41410002040810200041418D
:1001E0007F0004020102044040404040000102043C
:1001F0000020545454787F484444383844444420C0
:10020000384444487F3854545418087E0901020C7D
:100210005252523E7F0804047800447D4000204042
:10022000443D007F1028440000417F40007C0418BA
:1002300004787C0804047838444444387C1414144A
:1002400008081414187C7C080404084854545420EA
:10025000043F4440203C4040207C1C2040201C3C6B
:100260004030403C44281028440C5050503C4464DA
:10027000544C44000836410000007F000000413625
:1002800008001008081008784641467811241FBE5F
:10029000CFEFDAE0DEBFCDBF11E0A0E0B1E0ECE0EF
:1002A000F3E102C005900D92A634B107D9F723E01F
:1002B000A6E4B1E001C01D92AE33B207E1F703D06E
:1002C0000C9484099DCE8FE3F2D542D341D064D003
:1002D00091D09ED048D1D9D12AD380E090E0089522
:1002E00037D346E150E068E270E080E091E0ADD5C0
:1002F0001ED32FEF89E698E1215080409040E1F72E
:1003000000C0000025D346E150E068E270E082E0E2
:1003100091E09BD50CD32FEF89E698E121508040E6
:100320009040E1F700C0000013D346E150E068E2DE
:1003300070E084E091E089D5FAD22FEF89E698E168
:10034000215080409040E1F700C0000001D300C37D
:10035000FFD240E050E06FE070E086E091E075D5BC
:1003600049E050E067E070E081E191E06ED54BE15B
:1003700050E063E170E080E291E067D544E250E054
:100380006FE070E089E291E060D5D1D2199BFECF99
:100390001999FECFA5DFCBC2DBD22FE230E040E0DF
:1003A00050E060E070E080E090E0FDD22FE230E0CD
:1003B00043E550E060E070E083E590E0F4D220E0B7
:1003C00030E044E550E060E070E080E090E0EBD2A7
:1003D0002FE230E043E550E06FE270E080E090E033
:1003E000E2D22CE030E043E550E06CE070E080E0E9
:1003F00090E0D9C242E050E062E070E084E391E036
:1004000024D542E050E06FE170E080E091E01DC54E
:1004100042E050E066E270E08BE391E016D542E006
:1004200050E063E470E082E491E00FC5AF92BF92C8
:10043000CF92DF92EF92FF920F931F93CF93DF93B0
:10044000EC012D853E854F855889688179818A81A7
:100450009B814FD15B016C01862F9B2DAC2DBD2D57
:1004600088839983AA83BB8329893A894B895C89CC
:100470006C817D818E819F813CD17B018C01982F85
:100480004E2D5F2D692F712F4C835D836E837F838B
:10049000199B0CC01D861E861F86188A80E090E07E
:1004A000A0E8BFE3898B9A8BAB8BBC8B189B0CC0ED
:1004B0001D861E861F86188A80E090E0A0E8BFEBAC
:1004C000898B9A8BAB8BBC8B888563E570E0681B4E
:1004D0007109882777FD8095982F75D19B01AC0114
:1004E0006A2D7B2D8C2D9D2D1ED287FF0BC020E009
:1004F00030E040E85FE36A2D7B2D8C2D9D2D5DD192
:1005000087FF04C01D861E861F86188A89856FE2B4
:1005100070E0681B7109882777FD8095982F53D16B
:100520009B01AC016E2D7F2D802F912FFCD187FF79
:100530000BC020E030E040E651E46E2D7F2D802F8F
:10054000912F3BD187FF04C0198A1A8A1B8A1C8A03
:10055000DF91CF911F910F91FF90EF90DF90CF909F
:10056000BF90AF900895CF93DF93CDB7DEB7689774
:100570000FB6F894DEBF0FBECDBF80E78E8B90E242
:100580009F8B888F86E1E82EF12CEC0EFD1E03E098
:1005900024E04CE166E2CC24C394D12CCC0EDD1EC9
:1005A000C601B6D440E050E060E87FE34E875F8745
:1005B000688B798B1A8A1B8A1C8A1D8AC601D8D43B
:1005C000C7D1EADE17DF24DF60D0C6012FDFC60106
:1005D000CFD4ADD12FEF80E792E021508040904002
:1005E000E1F700C00000ECCF7F928F929F92AF9214
:1005F000BF92CF92DF92EF92FF920F931F93CF9310
:10060000DF93782E192FC82FD92F6E0188EAC80ED4
:10061000D11C812C912C80E8A82E8FE3B82EE72CDA
:10062000F12E03E028E044E164E1CE0171D48D862F
:100630009E86AF86B88A198A1A8A1B8A1C8A659692
:10064000CC15DD0561F7DF91CF911F910F91FF90E0
:10065000EF90DF90CF90BF90AF909F908F907F9062
:1006600008950F931F93CF93DF938C01C0E0D0E0E8
:10067000C8018C0F9D1F7CD46596C83AD105C1F77F
:10068000DF91CF911F910F910895CF93DF93CDB755
:10069000DEB7CB5AD1090FB6F894DEBF0FBECDBF7F
:1006A00080EEC755DF4F8883C95AD04080E4C655D5
:1006B000DF4F8883CA5AD04080EAC555DF4F888310
:1006C000CB5AD0409E0127553F4F43E068E0CE0112
:1006D00001968ADFCE010196C4DF29D1C555DF4FCF
:1006E0000FB6F894DEBF0FBECDBFDF91CF91089556
:1006F0005058BB27AA270ED0DCC0CDD030F0D2D0C6
:1007000020F031F49F3F11F41EF4C2C00EF4E095C6
:10071000E7FBB8C0E92FDED080F3BA176207730792
:100720008407950718F071F49EF5F6C00EF4E09575
:100730000B2EBA2FA02D0B01B90190010C01CA019B
:10074000A0011124FF27591B99F0593F50F4503E46
:1007500068F11A16F040A22F232F342F4427585F38
:10076000F3CF469537952795A795F0405395C9F750
:100770007EF41F16BA0B620B730B840BBAF0915008
:10078000A1F0FF0FBB1F661F771F881FC2F70EC0A7
:10079000BA0F621F731F841F48F48795779567957A
:1007A000B795F7959E3F08F0B3CF9395880F08F063
:1007B0009927EE0F97958795089540D008F481E02A
:1007C0000895E89409C097FB3EF490958095709544
:1007D00061957F4F8F4F9F4F9923A9F0F92F96E98D
:1007E000BB279395F695879577956795B795F11102
:1007F000F8CFFAF4BB0F11F460FF1BC06F5F7F4F9F
:100800008F4F9F4F16C0882311F096E911C07723B0
:1008100021F09EE8872F762F05C0662371F096E8B9
:10082000862F70E060E02AF09A95660F771F881F88
:10083000DAF7880F9695879597F90895990F00082C
:10084000550FAA0BE0E8FEEF16161706E807F907A2
:10085000C0F012161306E407F50798F0621B730B3D
:10086000840B950B39F40A2661F0232B242B252BBE
:1008700021F408950A2609F4A140A6958FEF811D61
:10088000811D089597F99F6780E870E060E0089502
:100890009FEF80EC089500240A9416161706180698
:1008A0000906089500240A94121613061406050674
:1008B0000895092E0394000C11F4882352F0BB0F05
:1008C00040F4BF2B11F460FF04C06F5F7F4F8F4F68
:1008D0009F4F089557FD9058440F551F59F05F3FA3
:1008E00071F04795880F97FB991F61F09F3F79F052
:1008F00087950895121613061406551FF2CF4695D4
:10090000F1DF08C0161617061806991FF1CF869555
:100910007105610508940895E894BB276627772739
:10092000CB0197F908958ADF08F48FEF0895CF93EC
:10093000DF9360E080E0E2D2C6E4D1E0699181E03B
:1009400098D283E0CE33D807C9F7DF91CF910895CD
:10095000E6E4F1E0119283E0EE33F807D9F7089569
:10096000843500F56033F0F4E62FE695E695E695DC
:10097000677094E5E99FF001112490E0E80FF91FFA
:10098000EA5BFE4F81E090E0062E01C0880F0A94DA
:10099000EAF7442319F09081982B03C08095908149
:1009A0009823908308952F923F924F925F926F9277
:1009B0007F928F929F92AF92BF92CF92DF92EF92EF
:1009C000FF920F931F93CF93DF93CDB7DEB762975C
:1009D0000FB6F894DEBF0FBECDBFA82E962E842E84
:1009E000B22E841309C005C041E0692D8A2DB8DFFD
:1009F0009394B914C8F7BCC1621309C005C041E0A3
:100A0000692D8A2DADDFA3948A14C8F7B1C1622F76
:100A100070E080E090E0D5DE6B017C01692D70E034
:100A200080E090E0D0DE9B01AC01C701B60160DE42
:100A30001B012C01682D70E080E090E0C2DE6B01AC
:100A40007C016A2D70E080E090E0BDDE9B01AC018E
:100A5000C701B6014DDE3B018C01762F272F372DC4
:100A6000402F512F622D732D842D952D56D36B0160
:100A70007C0120E030E040E85FE37D2D9F2DA8144D
:100A800090F551DF18160CF44AC120E030E040E840
:100A90005FE36C2D7D2D8E2D9F2D8FDE18165CF063
:100AA00020E030E0A9016C2D7D2D8E2D9F2D3BDFA8
:100AB00018160CF416C120E030E0A9016C2D7D2D34
:100AC0008E2D9F2D7ADE18160CF42CC120E030E01C
:100AD00040E85FEB6C2D7D2D8E2D9F2D24DF1816A9
:100AE0000CF402C11FC11FDF18160CF420C120E056
:100AF00030E040E85FE36C2D7D2D8E2D9F2D5DDE77
:100B000018165CF020E030E0A9016C2D7D2D8E2DB3
:100B10009F2D09DF18160CF4ECC020E030E0A9018D
:100B20006C2D7D2D8E2D9F2D48DE18160CF404C1E2
:100B300020E030E040E85FEB6C2D7D2D8E2D9F2D69
:100B4000F2DE18160CF4DAC0A2E0B0E0F2C08D813B
:100B50009E810397049720F0AA24A394B12C03C08C
:100B6000AA24AA94BA2C2601370177FA709477F850
:100B7000709420E030E0A901C701B601D4DE87FD02
:100B800005C0CF82D886E986FA8604C04F8258868F
:100B900069867A86E981FA81FA8BE98B912C812C1E
:100BA000712C612CC501AA2797FDA095BA2F8D87BE
:100BB0009E87AF87B88B82C0AB81BC8141E0AB2BF5
:100BC00019F0602F898902C06989802FC9DE7F8171
:100BD000688599858A85272F362F492F582FD4016C
:100BE000F3016B2F782D8F2F962D83DD6B877C87FC
:100BF0002C01962E872E782E652C20E030E040E0E8
:100C00005FE3D401F3016B2F7A2F8F2F9E2F8BDEA2
:100C100018160CF043C06D857E858F859889D3DDCD
:100C20009B01AC01C701B6010CD33B014C01E1E0D3
:100C3000F0E0FE83ED8320E030E0A901772D992DCF
:100C400072DE181614F01E821D82AA24A394B12C01
:100C500020E030E0A901662D772D882D992DADDD9E
:100C600087FD02C0A12CB12C8D819E818A199B0920
:100C7000019719F40F5F1F4F02C00150110920E0C6
:100C800030E040E85FE3BB85AC856B2F7A2F842D85
:100C9000952D2EDD962E872E782E692E89819A81AC
:100CA0008215930530F4A989BA891196BA8BA98B5C
:100CB00005C0E989FA893197FA8BE98B89819A8194
:100CC0008215930538F4A989BA892A163B0608F0DB
:100CD00073CF4EC0E989FA89E215F30508F06CCFAD
:100CE00047C01E821D820EC087E090E09E838D83E8
:100CF00009C0A4E0B0E0BE83AD8304C0E3E0F0E04F
:100D0000FE83ED83092D10E08A2D90E09A8389837C
:100D1000282C312CA1E0B0E0BC83AB8318CFE1E0FC
:100D2000F0E00CC086E090E09E838D8309C0A5E0D2
:100D3000B0E0BE83AD8304C0E2E0F0E0FE83ED836B
:100D4000222D332D442D552D662D772D802F912F5B
:100D5000E4D1C62ED72EE82EF92E0A2D10E0892DCB
:100D600090E09A8389832B2C312C1C821B82EFCE3E
:100D700062960FB6F894DEBF0FBECDBFDF91CF9164
:100D80001F910F91FF90EF90DF90CF90BF90AF90A9
:100D90009F908F907F906F905F904F903F902F909B
:100DA00008957F928F929F92AF92BF92CF92DF92DF
:100DB000EF92FF920F931F93CF93DF93862E742EA3
:100DC00000E010E090E0809725E0289F6001299FD7
:100DD000D00C1124AA24A394B12C1CC0A5010C2E64
:100DE00002C0440F551F0A94E2F74E215F210C2EDA
:100DF00002C0559547950A94E2F76C2F670D892D2F
:100E0000AFDD2196C830D10549F70F5F1F4F053080
:100E1000110569F0C0E0D0E0F801EC0DFD1DE455CE
:100E2000FF4FE491EE2EF12C982C900ED7CFDF914E
:100E3000CF911F910F91FF90EF90DF90CF90BF90D7
:100E4000AF909F908F907F9008950F931F93CF93B3
:100E5000DF93162F042FEC0104C0402F612FA1DF78
:100E60001B5F89918111F9CFDF91CF911F910F9174
:100E7000089525B130E2839FC00111242F7D282BD6
:100E800025B95F9887E090E070E08F989B01082E6D
:100E900002C0359527950A94E2F720FF02C02E9AEA
:100EA00001C02E988F9A019780F75F9A0895CF938B
:100EB000C82F579A249A259A269A879A2C985F9A2F
:100EC0002C9A61E280E0D5DF6C2F606880E0D1DF92
:100ED00064E080E0CEDF63E180E0CBDF6CE080E0C7
:100EE000C8DF60E280E0C5DF6CE080E0C2DF60E484
:100EF00080E0BFDF60E880E0CF91BBCFCF93C82F09
:100F0000606480E0B6DF6C2F606880E0CF91B1CF85
:100F1000CF92DF92EF92FF920F93CF93DF9300D0A7
:100F2000CDB7DEB76C0170E080E090E02A834983A2
:100F300048DCF60160837183828393834981642F47
:100F400070E080E090E03DDCF60164837583868389
:100F500097832A8120870187F486E3860F900F907C
:100F6000DF91CF910F91FF90EF90DF90CF90089598
:100F70002F923F924F925F926F927F928F929F92A9
:100F8000AF92BF92CF92DF92EF92FF920F931F9397
:100F9000CF93DF9300D000D0CDB7DEB79C838B8397
:100FA000DC011A968C91811195C0A0C0B6018827EA
:100FB00077FD8095982F07DCEB81FC8124813581BA
:100FC0004681578196DB962E872E782E692E20E05B
:100FD00030E0A901D401F3016B2F7A2F8F2F9E2FC0
:100FE000ECDB87FD73C020E030E040E452E4D40144
:100FF000F3016B2F7A2F8F2F9E2F95DC87FF76C002
:1010000020E8A22EB12CE12CF12C52C0AB81BC8186
:101010001B96ED91FC911C97E00FF11FB081B983F5
:10102000B701882777FD8095982FCDDBEB81FC8178
:1010300020813181428153815CDB1B012C0120E046
:1010400030E0A901732D952D6EDC87FD21C020E0D5
:1010500030E048EA52E4622D732D842D952DADDBEE
:1010600087FF16C089818A2199F0A4019301652F19
:10107000782D832F962DB9D0262F622D732D842D98
:10108000952D2A83B2D0862F41E02A81622F68DC19
:10109000FFEFEF1AFF0AC70187709927892B31F4F8
:1010A0000F5F1F4F90E8A92EB12C02C0B594A794F2
:1010B000AB81BC8118962C91822F90E0E816F9063E
:1010C0000CF4A4CF277011F00F5F1F4FBFEFCB1AA6
:1010D000DB0A04C0C12CD12C00E010E0EB81FC81C4
:1010E000818590E0C816D9060CF460CF0F900F9060
:1010F0000F900F90DF91CF911F910F91FF90EF9084
:10110000DF90CF90BF90AF909F908F907F906F9027
:101110005F904F903F902F9008950CD0CACBC2DBC8
:1011200040F0B9DB30F021F45F3F19F0ABCB511147
:10113000F4CBAECBCFDB98F39923C9F35523B1F3AE
:10114000951B550BBB27AA2762177307840738F036
:101150009F5F5F4F220F331F441FAA1FA9F333D095
:101160000E2E3AF0E0E830D091505040E695001C49
:10117000CAF729D0FE2F27D0660F771F881FBB1F05
:10118000261737074807AB07B0E809F0BB0B802DDF
:10119000BF01FF2793585F4F2AF09E3F510568F02B
:1011A00071CBBBCB5F3FECF3983EDCF38695779534
:1011B0006795B795F7959F5FC9F7880F911D96952D
:1011C000879597F90895E1E0660F771F881FBB1F89
:1011D000621773078407BA0720F0621B730B840B36
:1011E000BA0BEE1F88F7E09508957CDB88F09F57D7
:1011F00090F0B92F9927B751A0F0D1F0660F771F63
:10120000881F991F1AF0BA95C9F712C0B13081F042
:1012100083DBB1E0089580CB672F782F8827B85FF4
:1012200039F0B93FCCF3869577956795B395D9F7A3
:101230003EF490958095709561957F4F8F4F9F4FAD
:1012400008950BD036CB27DB28F02CDB18F0952344
:1012500009F018CB1DCB112460CB3CDBA0F3959F8C
:10126000D1F3950F50E0551F629FF001729FBB278D
:10127000F00DB11D639FAA27F00DB11DAA1F649F39
:101280006627B00DA11D661F829F2227B00DA11DEC
:10129000621F739FB00DA11D621F839FA00D611D72
:1012A000221F749F3327A00D611D231F849F600D93
:1012B000211D822F762F6A2F11249F5750408AF0CC
:1012C000E1F088234AF0EE0FFF1FBB1F661F771F58
:1012D000881F91505040A9F79E3F510570F0D2CA27
:1012E0001CCB5F3FECF3983EDCF3869577956795D2
:1012F000B795F795E7959F5FC1F7FE2B880F911D76
:0C1300009695879597F90895F894FFCF13
:10130C003300320031005A6F6D6269654461736855
:10131C00005465656E73792045646974696F6E005D
:10132C006E39333738383830004A61692053706968
:10133C00636572004C697665733A0053636F72652E
:06134C003A0030303000D1
:00000001FF
